:020000040001F9
:10600000183B0020856101009F610100A161010032
:106010000000000000000000000000000000000080
:10602000000000000000000000000000A36101006B
:106030000000000000000000A5610100A761010050
:10604000A9610100A9610100A9610100A961010024
:10605000A96101000000000039C50100956301003D
:10606000A9610100A9610100DD6E0100A9610100C3
:10607000A9610100A9610100A9610100A9610100F4
:10608000A9610100039C0100A9610100A96101004F
:10609000259C010069CB01009BA00100A9610100C2
:1060A000A9610100A96101000000000000000000DA
:1060B00000000000000000000000000000000000E0
:1060C00000F002F800F022F80CA030C808382418BC
:1060D0002D18A246671EAB4654465D46AC4201D120
:1060E00000F014F87E460F3E0FCCB6460126334230
:1060F00000D0FB1AA246AB4633431847E46E0000BB
:10610000F46E00001FB51FBD10B510BD06F0C3FE34
:106110001146FFF7F7FF01F0FAFC06F0DBFE03B4CF
:10612000FFF7F2FF03BC06F0DFFE0000401E00BFD9
:1061300000BF00BF00BF00BF00BF00BF00BF00BF67
:1061400000BF00BF00BFF1D17047000070B5054629
:106150000C46164602E00FCC0FC5103E102EFAD2A8
:10616000082E02D303CC03C5083E042E07D301CC6E
:1061700001C5361F03E021782970641C6D1C761E52
:10618000F9D270BD03210C4802680A4302600B4833
:1061900002680A4302600A4880470A480047FEE74F
:1061A000FEE7FEE7FEE7FEE7FEE7000006480749D8
:1061B000074A084B70470000240500405405004082
:1061C0007D620100C1600100182B0020183B0020F7
:1061D00018330020183300203248334908607047D4
:1061E0003248008CC0B2012812D13048808C0007A0
:1061F000000F00280CD12D48806AF021084040286B
:1062000006D12A48C06A0840002801D10120704701
:106210000020FCE72548008CC0B201282CD123487F
:10622000808C0007000F002826D12048806AF021CA
:106230000840002806D11D48C06A0840002801D146
:10624000012070471948806AF0210840102806D1C3
:106250001648C06A0840002801D10120F1E7134820
:10626000806AF0210840302806D11048C06A0840F2
:10627000002801D10120E4E70020E2E710B5FFF794
:10628000C9FF002805D00A480A494860C8130A49CE
:106290008861FFF7A5FF002802D001200749886028
:1062A00010BD00000024F40000200020C00F00F00A
:1062B000DFFF07C000050040006C00400006004002
:1062C00070B5002B0BD101248C40F74DEC60F74CDE
:1062D000F74D51263601AD198600AC510AE0012474
:1062E0008C40F14DAC60F34CF14D51263601AD19A7
:1062F0008600AC5100BF00BF00BF01248500EC4EFA
:10630000AD192C600C0203252C4315042C431D05EC
:106310002C43354651263601AD198600AC5100BFDD
:1063200000BF00BF70BD012383401946DE4B5B6890
:10633000C340DA07D20F002A02D1DB4B996001E09B
:10634000D94BD960704700BF00BF00BF00BF00BF7E
:10635000BFF34F8F00BF00BF00BFD748D749C86009
:1063600000BF00BF00BFBFF34F8F00BF00BF00BF23
:1063700000E000BFFDE703460C4622461946D04820
:10638000FFF7E1FF034600BFCEA2FF2117311846F9
:10639000FFF7D9FFF8B5CE48006800282FD00020BD
:1063A000CB490860CB488068C5B20120CA49486023
:1063B0004B21090169430846FF2106F0C6FC410054
:1063C0004018FF300F3086B2304601F039FC0746E6
:1063D0003946C24802F01DF80446002C0ED0082CA5
:1063E0000CD0BF48844209D0BE48844206D000BFCA
:1063F000B4A2FF213B312046FFF7A5FF00BFF8BD47
:1064000010B50120B84948601820B2494860002002
:10641000AF4908600120AF49086007202ADF044621
:1064200000BF2346002B06D000BFA6A2FF21533198
:106430001846FFF788FF00BF032107202BDF044623
:1064400000BF2346002B06D000BF9EA2FF2156317D
:106450001846FFF778FF00BF072026DF044600BF7D
:106460002346002B06D000BF96A2FF2159311846C3
:10647000FFF769FF00BF0020954908600120964999
:10648000086010BD10B59948007800281ED1012081
:1064900097490870132001F0C2FB0120944908704D
:1064A00092490870924A93499348006803F082FC2D
:1064B000044600BF2346002B06D000BF81A2FF2167
:1064C00072311846FFF73FFF00BF00BF10BD10B587
:1064D0008948006803F09FFC044600BF2346002B58
:1064E00006D000BF77A2FF217E311846FFF72BFFB1
:1064F00000BF00207D490870132001F095FB10BDFE
:1065000010B57E48007800281CD101207C49087015
:10651000132001F084FB012078490870784A7549FE
:106520007848006803F046FC044600BF2346002B71
:1065300006D000BF63A2FF2198311846FFF703FF82
:1065400000BF00BF10BD10B5002303220A2118466A
:10655000FFF7B6FE0123032217211846FFF7B0FE0E
:1065600001206949086069480078002836D1012077
:106570006749087065490870654A092149036548FB
:10658000006803F017FC044600BF2346002B06D02A
:1065900000BF4CA2FF21BF311846FFF7D4FE00BF59
:1065A0005B4A5D495D48006803F004FC044600BF97
:1065B0002346002B06D000BF42A2FF21C53118465A
:1065C000FFF7C1FE00BF56480078002805D1132010
:1065D00001F025FB01204949087000BF10BD10B52E
:1065E000002001F00BFB012001F008FB0A2001F064
:1065F0001BFB172001F018FB012043494860C860CD
:106600004448006803F007FC044600BF2346002B03
:1066100006D000BF2BA2FF21E1311846FFF793FE01
:1066200000BF3E48006803F0F6FB044600BF234667
:10663000002B06D000BF23A2FF21E4311846FFF74C
:1066400082FE00BFFF20F5302F49152292018918E4
:106650004860FA203349086000202D4908702B4912
:10666000087022480078002804D1244908701320BB
:1066700001F0DAFA10BD10B52248006803F0CBFB38
:10668000044600BF2346002B06D000BF0DA2FF2109
:10669000FD311846FFF757FE00BF0020174908706C
:1066A000132001F0C1FA10BD00050050031F0200C5
:1066B00000600040031F01000400FA0500ED00E047
:1066C000EFBEADDE2E2E5C6D61696E2E63000000A4
:1066D0000071004000750040007000408C210020D7
:1066E0000430000001340000007300400A20002044
:1066F00050200020CD0C0000242000200920002084
:10670000512000202020002000A000400B2000206D
:106710000C20002028200020330300002C20002023
:106720001420002040A50040F3B59BB00D46042185
:106730000C91FE4903C90B910A90FC48083000688F
:1067400009900020FA49087038210DA806F0F1FAE6
:1067500007A871DF0746062668468682002005E006
:1067600007A90131095C03AA1154401C0628F7DB74
:1067700003A80690002000900190029006990598C9
:1067800002910190022108A80175012181756846D6
:1067900001871BA90F910CA81090002D05D0022095
:1067A00010A988810AA9149104E0012010A9888108
:1067B00009A914916846189000210DA802F026FC42
:1067C000044600BF2346002B05D000BFD94ADA4952
:1067D0001846FFF7B8FD00BF1DB0F0BD10B59AB068
:1067E00010A805F0F2FC044600BF2346002B05D09C
:1067F00000BFD04AD1491846FFF7A5FD00BF109849
:10680000002804D00120CE4908701AB010BD142110
:1068100015A806F08EFA002110A801750020169028
:1068200010A8017700201890C1480078002806D0F1
:10683000012808D002283DD0032856D147E0012086
:10684000BB49087000BF082110A80172017408A894
:1068500011906846139011A9BA4804F003F8044651
:1068600000BF2346002B06D000BFB24AB3492231F5
:106870001846FFF768FD00BF10A8007A002803D172
:1068800010A8007C00280CD0022010A9087711A8BD
:10689000189000210420FFF747FF0220A449087048
:1068A00002E00320A2490870202110A88184B421AD
:1068B000C1841BE001210620FFF736FF202110A82C
:1068C0008184B421C1840320994908700EE000211D
:1068D0000620FFF729FF1321890110A881840021D8
:1068E000C18404209249087000E000BF00BF15A8D1
:1068F00073DF044600BF2346002B06D000BF8D4A3D
:106900008E4950311846FFF71EFD00BF88480078B9
:10691000042802D0FFF7B6FD01E0FFF7D8FD00BF65
:1069200073E710B50446FFF70EFE10BD10B5044620
:10693000FFF709FE834804F041F810BD10B5044686
:10694000FFF75EFD10BDF8B505467F4800780028CA
:1069500034D000BF002D01D0012000E0002003460C
:10696000002B05D100BF734A74498531FFF7EBFC5A
:1069700000BF1320FFF7D7FC2C462078002801D158
:10698000012000E0002020702078002801D06F4F07
:1069900000E06F4F224639466E48006803F00AFA5D
:1069A000064600BF3346002B06D000BF614A63494C
:1069B0009D311846FFF7C7FC00BF00BFF8BDF8B512
:1069C000054665480078002834D000BF002D01D06E
:1069D000012000E000200346002B05D100BF554AEE
:1069E000B1218900FFF7AFFC00BF1320FFF79BFC2C
:1069F0002C462078002801D1012000E000202070E2
:106A00002078002801D0514F00E0514F22463946EE
:106A10005248006803F0CEF9064600BF3346002B0B
:106A200006D000BF434AB72189001846FFF78BFC08
:106A300000BF00BFF8BDF8B50546494800780028FA
:106A400072D00020009000BF002D01D0012000E096
:106A500000200346002B05D100BF364A3749E131FB
:106A6000FFF771FC00BF3F480078002829D00120C3
:106A70003D49486000203B4908703C48006803F0ED
:106A8000CAF9044600BF2346002B06D000BF294A9E
:106A90002A49EA311846FFF756FC00BFFF20F530BF
:106AA00031491522920189184860FA20304908605E
:106AB000132001F0BEF801286CD1132001F0B4F8C6
:106AC00068E01B480078002803D02A480078022894
:106AD00002D1012000905DE026480078012859D1BC
:106AE00025480078022807DA23480078401C22490C
:106AF0000870012000904DE0002000901E490870B1
:106B00001E48006803F087F9044600BF2346002BA7
:106B100005D000BF074A1A491846FFF714FC00BF0A
:106B200000200F4908702DE06EE0000050CF0100FA
:106B300014200020C466010093040000110200002C
:106B4000452000204420002009200020CD0C00001A
:106B500033730000202000200A2000202420002081
:106B60000B2000200C20002000A000402C20002042
:106B700040A50040072000200620002028200020FB
:106B800016030000132001F054F8012802D113204D
:106B900001F04AF80098002835D0FE480078002817
:106BA00002D1132001F03BF80120FB490860FB49AA
:106BB00008700846067809277F0332463946F848A8
:106BC000006803F0F7F8044600BF2346002B06D008
:106BD00000BFF44A332109011846FFF7B4FB00BF98
:106BE0003246F149F148006803F0E4F8044600BF7A
:106BF0002346002B06D000BFEA4AEB49C91C1846C1
:106C0000FFF7A1FB00BF00BFF8BD10B5132000F0D7
:106C1000FDFF10BDE04915229201891849685029ED
:106C20000FD9E3490968891EE14A1160DA49152242
:106C3000920189184968091FD74A15239B01D21868
:106C40005160704710B50446FFF7C9FC10BD70B520
:106C50000546A121D74801F0FAFC044670BD38B5BD
:106C60000546D54800680090002304226946D348B1
:106C700005F079F9044600BF2346002B06D000BF7B
:106C8000C84A372109011846FFF75DFB00BF38BD30
:106C900038B500BF0020CA4B0E220C21009002F034
:106CA000C5FF054600BF2B46002B06D000BFBD4ADE
:106CB000BD4950311846FFF746FB00BF00BFC14A2F
:106CC0000121C14803F02FF8044600BF2346002BE2
:106CD00006D000BFB34AB44956311846FFF733FB1C
:106CE00000BFBA4A0021BA4803F01DF8044600BFAD
:106CF0002346002B06D000BFAA4AAB495B31184699
:106D0000FFF721FB00BFB34A0021B34803F00BF8A3
:106D1000044600BF2346002B06D000BFA14AA2496B
:106D200060311846FFF70FFB00BFAC4A01219C48B9
:106D300002F0F9FF044600BF2346002B06D000BF37
:106D4000984A994966311846FFF7FDFA00BFA44AF0
:106D50000121964802F0E7FF044600BF2346002BBE
:106D600006D000BF8F4A90496C311846FFF7EBFA06
:106D700000BF9C4A00219C4802F0D5FF04469B4A74
:106D800001219B4802F0CFFF044600BF2346002BA1
:106D900006D000BF834A7521C9001846FFF7D3FA11
:106DA00000BF944A0021944802F0BDFF044600BF92
:106DB0002346002B06D000BF7A4A7B497A31184619
:106DC000FFF7C1FA00BF8D4A00218D4802F0ABFFEA
:106DD000044600BF2346002B06D000BF714A72490B
:106DE0007F311846FFF7AFFA00BF864A0021864878
:106DF00002F099FF044600BF2346002B06D000BFD7
:106E0000684A694982311846FFF79DFA00BF38BDCC
:106E100010B50A2000F0FAFE172000F0F7FE7B48BC
:106E20007B4908617B487C495122120189184860DE
:106E30007648001D78498918886076497648801818
:106E4000C1607248083074498918086171497248F4
:106E5000801841616D487049891888616D49091D24
:106E60006D488018C1616948001D6B498918086226
:106E70006849091D684880184162644808306649BD
:106E8000891888626349091D63488018C1623F20E0
:106E90005F49086000204649403948600420086185
:106EA00001203D49C860FF20F53015229201891864
:106EB0004860FA203E490860012040045749486074
:106EC00002205249C03108600A2001218140544A01
:106ED000116000BF032100F05AFE10BD4B4840680E
:106EE000012809D14D484068012149040840002883
:106EF00002D000214548416070473EB500BF68465A
:106F0000007801090901491C009168460078F021C8
:106F100088431030009000BF032242A168467CDF06
:106F2000044600BF2346002B05D000BF1D4A3E4942
:106F30001846FFF708FA00BF0920800178DF0446F1
:106F400000BF2346002B06D000BF164A3649C91C95
:106F50001846FFF7F8F900BF002001900290FF21CA
:106F60009131684681804900C180012101814B2116
:106F7000C900418101A87ADF044600BF2346002BE7
:106F800006D000BF074A28490D311846FFF7DBF944
:106F900000BF4BE01420002000A000400C20002087
:106FA00028200020C4660100330300002C200020AC
:106FB00040A50040A42100204CCF01004820002023
:106FC000B02100203D6901001C200020476901001C
:106FD00020200020BF69010024200020376A010022
:106FE000156C0100456C0100302000204F6C010041
:106FF000342000205F6C010038200020236901004C
:107000003C2000202D6901004020002040A10040CC
:1070100000F501400060004000F0014000A3004086
:1070200000E100E0746B720036040000042077DF9A
:10703000044600BF2346002B05D000BFFB4AFC4995
:107040001846FFF780F900BF3EBD38B5002000901C
:1070500004206946087000BF6846407801090901AC
:10706000491C684641704078F021884320306946C9
:10707000487000BF00BF6846807800090001887032
:1070800068468078F02188436946887000BFE948E7
:1070900000F0A5FE044600BF2346002B06D000BF2B
:1070A000E24AE3495F311846FFF74DF900BF38BDAA
:1070B00010B50446002C04D0012C0AD0022C14D1A7
:1070C0000DE00020DC490870DC490870FFF787FA02
:1070D0000CE00120D9490870FFF735FA06E00220DC
:1070E000D6490870FFF72FFA00E000BF00BF10BDBF
:1070F00070B505460C462078002803D16078FFF76C
:10710000D7FF00E000BF00BF70BD38B50020009081
:10711000CB4800906946CB4800F021FF044600BFF1
:107120002346002B06D000BFC04AC1496E31184625
:10713000FFF709F900BF38BD0A78002A06D10122FD
:10714000BD4B1A704A78C04B1A7000E000BF00BFF8
:1071500070473EB50020009001900290BB4800901F
:10716000BB48019000206946087200BF6846407A1B
:1071700001090901491C68464172407AF02188439F
:1071800010306946487200BF00BF6846807A000927
:107190000001401C88726846807AF02188431030D4
:1071A0006946887200BFAB4800F0BFFF044600BFCD
:1071B0002346002B06D000BF9C4A9D4984311846C7
:1071C000FFF7C1F800BF00209B4908703EBD70B5B5
:1071D00006460D462878002802D0012825D112E065
:1071E00000229D499D48006802F0E4FD044600BF6E
:1071F0002346002B05D000BF8C4A99491846FFF75B
:10720000A2F800BF12E09548006802F004FE0446B0
:1072100000BF2346002B06D000BF844A9049491D79
:107220001846FFF790F800BF00E000BF00BF70BD38
:1072300010B586B0142101A805F07BFD89480190A6
:1072400001216846017200200390642168460174A0
:1072500000BF407C01090901491C68464174407C1B
:10726000F021884320306946487400BF00BF01A860
:10727000807B00090001401C01A9887301A8807B64
:10728000F0218843103001A9887300BF00BF01A816
:10729000C07B00090001C87301A8C07BF0218843AE
:1072A00001A9C87300BF00BF6846007D010909013C
:1072B000491C68460175007DF021884310306946FD
:1072C000087500BF01A9684801F082F8044600BFB4
:1072D0002346002B06D000BF544A5549A331184617
:1072E000FFF731F800BF06B010BD70B506460C467A
:1072F0002078002804D001280DD002280DD10BE001
:10730000112000F096FC002804D10221574801F01A
:107310009EF9054602E001E000E000BF00BF70BD3D
:107320001CB5002000900190514800904848019001
:1073300069464E4801F0B0F8044600BF2346002BD2
:1073400006D000BF394A3A49B8311846FEF7FBFF6C
:1073500000BF1CBD10B598B0402108A805F0E9FC9D
:1073600044A00068059044A207CA02AB07C345A029
:107370000068019002216846018305A807900799DB
:107380000698099108900A216846018302A807908F
:10739000079906980B910A900A216846018302A872
:1073A000079007990698139112900A216846018365
:1073B00002A807900799069811911090022168463B
:1073C000018301A80790079906981391129000BFB6
:1073D00010A8007F01090901491C10A80177007F4E
:1073E000F0218843203010A9087700BF08A801F0D9
:1073F00059FA044600BF2346002B06D000BF0B4AB3
:107400001749C9391846FEF79EFF00BF18B010BDD6
:1074100010B5FFF71AFEFFF778FEFFF79AFEFFF7A9
:1074200007FFFFF77DFFFFF795FF10BDC466010062
:10743000460400005C2100200520002008200020D8
:10744000F17001006821002007200020397101003F
:1074500085630100782100200000409D1C20002051
:10746000EE050000CF7101008C210020A421002036
:10747000EB72010050480000312E32303135303788
:1074800032330000303300001E20FD4908800846DA
:10749000807840084000401C8870084680780221AF
:1074A0008843F7498870084680781C2188430C304F
:1074B000F34988700846807820218843F049887015
:1074C0000720C870102008717047034600BFED4ABE
:1074D000A921C9001846FEF736FF10B588B01C2157
:1074E00001A805F026FC002001900520C0030290B1
:1074F0000390032168460174002141820121017536
:1075000000200690E048079001A801F05EFE0446C6
:1075100000BF2346002B05D000BFDA4ADB491846DE
:10752000FEF711FF00BF08B010BD70B5044600257E
:107530002088192858D006DC102809D011282CD012
:1075400013287ED149E0392867D0552879D165E0E4
:10755000CF4806680120CE490860CE48006802F096
:107560005AFC0546FEF7B3FFCB480078002803D04D
:10757000FFF781F8FFF733F80020C8490870A088AA
:10758000C749088004F00FFF05460022E1210905E4
:10759000C448006802F00EFC54E0BF4800780028A0
:1075A00001D1FFF768F80020C043BD4908800320DF
:1075B000BA490870FFF712F9BB480078002806DDC9
:1075C00000220521C903B348006802F0F3FBB54867
:1075D000006802F020FC054634E0A94A0021B048CA
:1075E00000887FDF05462DE0A079002814D1FEF742
:1075F0006EFFAA480078042808D1FFF73CF874DF32
:107600000320A6490870FFF7E9F805E074DF0320BE
:10761000A2490870FFF7E2F814E000BF1321A04868
:10762000008876DF054600BF2B46002B06D000BF42
:10763000944ACD21C9001846FEF785FE00BF01E03F
:10764000FFE700BF00BF70BD10B50446022C02D09A
:10765000032C0BD100E000BF94480078002804D030
:10766000002092490870FFF7B9F800E000BF00BFA2
:1076700010BD10B50446204603F040FC204601F042
:1076800078FE21468A4800F0E9FB2146894800F04F
:10769000D6FC2146884800F09EFD2146874800F030
:1076A0008FFF2046FFF741FF10BD10B5044620466E
:1076B00004F0E5F92046FFF7C7FF10BD38B500BF5D
:1076C000002350227E49082002F09FFC054600BF9F
:1076D0002B46002B05D000BF6A4A7A491846FEF7B0
:1076E00032FE00BF00BF002000900090684660DFBF
:1076F000044600BF2346002B06D000BF614A7149F3
:10770000C91D1846FEF71FFE00BF6F4802F0B3FC0C
:10771000044600BF2346002B06D000BF594A6949E2
:107720000B311846FEF70FFE00BF684802F0ACFCB4
:10773000044600BF2346002B06D000BF514A6149D2
:107740000F311846FEF7FFFD00BF38BD034600208D
:1077500070471FB504F036FA044600BF2346002BDD
:1077600006D000BF474A57493A311846FEF7EBFDAD
:1077700000BF0020039003A802F03FFF044600BFB3
:107780002346002B06D000BF3E4A4E4940311846E2
:10779000FEF7D9FD00BF002C3CD1062101A8023024
:1077A00005F0C5FA1E216846C180007A40084000F5
:1077B000401C694608726846007A0221884369467F
:1077C00008726846007A1C2188430C3069460872AA
:1077D0006846007A20218843694608720721684676
:1077E0004172102181723A4800900121684601716E
:1077F0006946384802F070FF044600BF2346002B5C
:1078000006D000BF1F4A2F4950311846FEF79BFD96
:1078100000BF00BF1FBDF8B505460E46112D7DD136
:107820001B48006800285FD1112000F002FA0028F0
:107830005AD10220164908602748006800900023AA
:1078400004226946254804F08EFB044600BF234607
:10785000002B06D000BF0B4A1A497E311846FEF7AE
:1078600072FD00BF02200D490870FEF7B7FFFEF75A
:107870006AFE00221A491B48006802F09BFAACE03D
:107880000E200020C4660100CB7401005F050000DB
:10789000182000203C20002005200020142000207B
:1078A0005220002034200020072000204520002006
:1078B00068210020782100208C210020A4210020B4
:1078C000E0270020B406000073760100AB760100CB
:1078D0004D770100442000205CCF010048200020AB
:1078E000CD0C000030200020F9480068022851D15A
:1078F000112000F09EF900284CD1F64800780428A9
:1079000024D1F54800680090002304226946F3481A
:1079100004F029FB044600BF234600E05EE0002B94
:1079200006D000BFEE4A1D2189011846FEF70BFD67
:1079300000BF74DF01210620FEF7F6FE0220E549B4
:107940000870FEF74BFFFEF79DFD1AE074DF002084
:107950000090002304226946E04804F09FFA0446A0
:1079600000BF2346002B05D000BFDD4ADD49184685
:10797000FEF7E9FC00BFFEF7AAFD0420D549087018
:1079800000BFFEF7E0FD0022D749D848006802F0AA
:1079900011FA22E0FEF723FE112000F04AF9002838
:1079A00005D10221D24800F052FE044604E0002135
:1079B000CF4800F04CFE0446002C0ED0CD48844247
:1079C0000BD0CD48844208D0052C06D000BFC44A55
:1079D000C44930312046FEF7B6FC00E000BF00BFCE
:1079E000F8BD10B500BFC549012004F025FE0446CE
:1079F00000BF2346002B06D000BFB94AB949453124
:107A00001846FEF7A0FC00BF00BF10BD10B500BFB8
:107A10000023B44AE73A0121B94804F082FC044645
:107A200000BF2346002B06D000BFAD4AAD494E3102
:107A30001846FEF788FC00BF00BF10BD10B540DF40
:107A4000044600BF2346002B06D000BFA44AA54928
:107A500057311846FEF777FC00BF10BD10B5A94A94
:107A60000521012005F091F8044600BF2346002BB4
:107A700006D000BF9A4A7B2109011846FEF763FC35
:107A800000BF10BDF8B507460C461D46069E297876
:107A9000684601700078012809D1032C07D1022023
:107AA0008B49086003208B490870FEF797FEF8BDEC
:107AB0001FB501200007006981B26846818001215D
:107AC000C1809148009002A9684604F0DDF80446A0
:107AD00000BF2346002B06D000BF814A8149853173
:107AE0001846FEF730FC00BF7C4A002102A804F0D3
:107AF00091F9044600BF2346002B06D000BF784A08
:107B0000784988311846FEF71EFC00BF1FBD08B536
:107B1000FFF77BF8FFF7BCF8FFF77AF9FFF761FF93
:107B2000FFF774FFFFF715FEFFF7C8FDFFF711FE23
:107B3000FFF7E3F901210620FEF7F6FDFFF768FCE9
:107B4000FFF7CBFCFFF78AFFFFF7B2FF0220614986
:107B5000087000205E49086004F025FC0023042220
:107B60005E49684604F064FA044600BF2346002BD1
:107B700006D000BF5A4A5B49AD311846FEF7E3FB19
:107B800000BF012033DF00BFFFF758FFFCE710B54F
:107B9000002819DA5D4A03071B0F083B9B089B006E
:107BA000D2588307DC0EFF23A3409A438B071B0E9A
:107BB0008407E40EA3401A43544B0407240F083CE7
:107BC000A408A4001A5118E0514A03231B02D2183A
:107BD00083089B00D2588307DC0EFF23A3409A43FF
:107BE0008B071B0E8407E40EA3401A43484B032463
:107BF00024021B198408A4001A5110BD4549464AA5
:107C000051231B01D2188300D15070470321052254
:107C1000120707231B02D2188300D150704701219D
:107C200081403E4A91607047012181403B4AD160CA
:107C30007047014639480069C840C007C00F704707
:107C400070B504463648844201DB64256FE0344851
:107C5000643884420BDD3249091B3A2251430846FD
:107C6000642105F072F86421081AC5B25FE02D485E
:107C700084420CDD2A496439091B18225143084605
:107C8000A02105F062F82A21081AC5B24FE0264863
:107C900084420CDD2349091B0C2251430846FF2175
:107CA0002D3105F052F81221081AC5B23FE00D48F7
:107CB000E73084423ADD1C49091B0622514308463D
:107CC000FF21553105F041F80621081AC5B22EE012
:107CD000182000201420002060CF01004820002040
:107CE000C46601004D070000CD0C000030200020CC
:107CF000A4210020043000000134000030280020BE
:107D0000542000204DCB0100857A01001CED00E0DD
:107D100000E100E0001F030000600040000500508B
:107D2000B80B0000B40A00008809000000252846AE
:107D300070BD000030B58FB005460C461C2108A868
:107D400004F0F7FF08A9087802218843801C08A9DD
:107D50000870002009900B900C900D900E9000BFC1
:107D60000121684681723049018100BF00200190E5
:107D7000617868460171A178417180790621884354
:107D8000811C6846817180790821884301466846D4
:107D9000817180791021884301466846817180791C
:107DA0004108490068468171142103A804F0C1FF0D
:107DB000142103A804F0BDFF02A8039001A80490B9
:107DC0000121684681820021C1820121018307943B
:107DD0002888AB1C03AA08A9A2DF0FB030BDF8B5F4
:107DE00005460E4600BF0121684681700F4901809B
:107DF00000BF2A4669460120A0DF0446002C01D0BE
:107E00002046F8BD31462846FFF794FFF9E713B541
:107E100082B0044601200190608803AB01AA0021D2
:107E2000A4DF04B010BD0000072A00000418000001
:107E3000F8B504460E46B51D2888E18888420CD165
:107E4000288B012809D1002168460170A97E417064
:107E5000694620462268904700BFF8BD70B50546C8
:107E60000C462088502804D121462846FFF7E0FF21
:107E700000E000BF00BF70BD10B590B004461C21EB
:107E800009A804F056FF08A8007904218843011DC1
:107E900008A80171007902218843801C08A9087193
:107EA00000200A900C900D900E900F9000BF0121C1
:107EB000684681733E49818100BF0020029000BF67
:107EC0006846007A01090901491C68460172007A76
:107ED000F021884310306946087200BF00BF684631
:107EE000407A01090901491C68464172407AF02133
:107EF000884310306946487200BF6846807A062180
:107F00008843811C68468172807A08218843014633
:107F100068468172807A10218843014668468172E2
:107F2000807A4108490068468172142104A804F04F
:107F300000FF0021019103A8049002A805900121EF
:107F400068460183002141830121818301A80890B3
:107F5000A088A31D04AA09A9A2DF10B010BDF8B51E
:107F600004460D462868002801D10720F8BD28687E
:107F7000206000BF0121684681700E49018000BF6A
:107F8000221D69460120A0DF0646002E01D03046A2
:107F9000ECE72046FFF770FFE8E738B504460D46EA
:107FA00001200090E0882B466A460021A5DF38BDFD
:107FB000062A00000218000038B504460021684671
:107FC00001704170694620462268904738BD38B537
:107FD00004460D460120009060892B466A46002128
:107FE000A5DF38BDF8B504460D46AF79082F15D189
:107FF000002069460870491C2046FFF7E8FF064646
:10800000002E04D1694620462268904705E060684A
:10801000002802D030466168884700BFF8BD38B5F7
:1080200004460D46A879002808D100216846017051
:108030004170694620462268904700BF38BD70B540
:1080400005460C462088102804D0112806D0172891
:108050000ED108E02846FFF7AFFF0AE02146284688
:10806000FFF7C0FF05E021462846FFF7D8FF00E0F4
:1080700000BF00BF70BD30B58FB005460C461C2157
:1080800008A804F056FE08A8007802218843811C45
:1080900008A80170007808218843083008A90870F2
:1080A000002009900B900C900D900E9000BF0121C4
:1080B000684681722E49018100BF00200190617ADB
:1080C00068460171A17A4171807906218843811C3B
:1080D000684681718079082188430146684681712C
:1080E0008079102188430146684681718079410872
:1080F000490068468171142103A804F01AFE217A10
:10810000009102A8039001A8049001216846818291
:108110000021C18201210183079028892B460A335F
:1081200003AA08A9A2DF0FB030BDF8B504460D467A
:108130002868002801D10720F8BD286820606868F9
:10814000606000BF0121684681700A49018000BF5C
:108150002246083269460120A0DF0646002E01D0E3
:108160003046E9E729462046FFF785FFE4E70000AF
:10817000062A0000031800008A8842827047002205
:10818000D24342827047F8B504460E46207D00284F
:1081900020D0B51D2988608981421AD1288B0228F8
:1081A00017D12068002814D000BF00BFA97EEA7E46
:1081B000120211430846C107C90F002902D000204E
:1081C000009001E001200090694620462268904717
:1081D00000BF00BFF8BD70B505460C4620881028CA
:1081E00004D0112807D050280FD109E02146284695
:1081F000FFF7C2FF0AE021462846FFF7C0FF05E06F
:1082000021462846FFF7BFFF00E000BF00BF70BD5A
:10821000F0B591B004460D46207D002819D000200D
:10822000099000BF08A8007901090901491C08A8A4
:1082300001710079F0218843103008A9087100BF4E
:10824000697B08A84171807906218843801C08A9B0
:1082500088711C210AA804F06CFD08A8007A02218C
:108260008843811C08A80172007A10218843217D6F
:10827000002901D0012100E0002109011022114054
:10828000084308A9087200200B900D900E90207DE5
:10829000002801D009A800E000200F9000201090D5
:1082A00000BF0121684681737749818100BF0020AA
:1082B0000290A97B68460172E97B4172807A0621AF
:1082C0008843811C68468172807A08218843014670
:1082D00068468172807A102188430146684681721F
:1082E000807A4108490068468172297B01911421F6
:1082F00004A804F01EFD03A8049002A80590012123
:1083000068460183002141830121818301A80890EF
:10831000A088A31D04AA0AA9A2DF0646002E02D047
:10832000304611B0F0BDA86800284DD000BF012133
:10833000684681735549818100BF00200290287CE6
:108340006946087200BF6846407A0109090168461B
:108350004172407AF02188436946487200BF6846FE
:10836000807A06218843811C68468172807A0821C0
:108370008843014668468172807A1021884301460D
:1083800068468172807A4108490068468172A9680E
:1083900000F084FE0746142104A804F0CAFC03A8D8
:1083A000049002A805906846078300214183018B51
:1083B00081830890E08822460E3204A9A3DF064696
:1083C000002E03D03046ACE70020E0810020A8E773
:1083D000F8B504460D46286820600020C04360823E
:1083E00028792075FF20207400BF01216846817024
:1083F0002749018000BF221D69460120A0DF0646F3
:10840000002E01D03046F8BD29462046FFF700FF78
:10841000F9E733B585B004460025207C6946097E1E
:1084200088422FD0012104916846007E2074E088A4
:1084300006AB04AA0021A4DF0546002D02D0284681
:1084400007B030BD608A1349884219D0207D0028CA
:1084500016D0002000900190029003900121049119
:10846000E18868460180012181700021818004A893
:10847000029006A80390608A6946A6DF054600E0E0
:10848000082500BF2846DBE7192A0000082900005C
:108490000F180000FFFF000002460868002801D105
:1084A0000720704708681060486850600020C0438B
:1084B00050810020108100BF01206F4B98706F48E1
:1084C000188000BF0020ECE738B504460D46A888A8
:1084D000608100BF0121684681706949018000BF49
:1084E00060896A46012190DF38BDF8B505460C4623
:1084F0000026E088002802D1A089002806D10120AA
:108500000090694628462A68904706E027461237B9
:108510006889394692DF064600BF3046F8BDF8B597
:1085200006460F46F88800282FD13D460C3500241A
:1085300026E0514881780A206043AA1C8018807880
:1085400081421CD14C4801880A206043105A814264
:1085500015D10A206043A91C401800794007C00FBC
:1085600000280BD00A206043401800893081002089
:1085700000906946304632689047F8BD03E0641CBD
:108580002888A042D5DC00BF00BF012000906946CA
:1085900030463268904700BFEFE738B504460D46D5
:1085A0000020C04360812089002808D0022000906C
:1085B00069462046226890470020208100BF38BDD0
:1085C00070B504460D4600262888102806D01128CC
:1085D00015D0302808D0322816D10BE02946204685
:1085E000FFF772FF064610E029462046FFF77DFFA1
:1085F00006460AE029462046FFF791FF05E0294696
:108600002046FFF7CAFF00E000BF00BF002E05D0E4
:108610006068002802D030466168884770BDF0B5B8
:1086200085B007460C4615461E4600200090019076
:1086300002900390684644800221017000218180ED
:10864000C58002966946384697DF05B0F0BD13B580
:10865000044600BF2089002801D0012000E000204E
:10866000002801D105201CBD2189608901AB0122B0
:10867000FFF7D5FFF7E700005C200020062A000086
:108680000218000070B504460D4600BF002D01D051
:10869000012000E000200646002E05D100BFE6A222
:1086A0003321FDF750FE00BF00BF00BF002C01D0FA
:1086B000012000E000200646002E05D100BFDEA20A
:1086C0003421FDF740FE00BF00BF287820702988C4
:1086D0002879FF231B02194000200206080A1043D4
:1086E000607028791B022968194000200204080CD8
:1086F0001043A07029791B02286818400021090244
:10870000000E0843E07028792071287A6071190CF6
:10871000A8680840000AA0710902A8680840000C77
:10872000E07170BDF8B505460E46002400BF002E6E
:1087300001D0012000E000200746002F05D100BF36
:10874000BDA24B21FDF7FFFD00BF00BF00BF002D04
:1087500001D0012000E000200746002F05D100BF16
:10876000B5A24C21FDF7EFFD00BF00BF32782046D7
:10877000611CCCB22A542919708800F054F90019F0
:10878000C4B22919B08800F04EF90019C4B22919F1
:10879000F08800F048F90019C4B200BF072C01D1DD
:1087A000012000E000200746002F05D100BFA2A253
:1087B0005421FDF7C8FD00BF00BFF8BDF0B58FB074
:1087C00007460D4614461E4600BF002D01D001206D
:1087D00000E0002000900098002805D100BF96A27C
:1087E0006D21FDF7B0FD00BF00BF00BF002C01DD13
:1087F000012000E0002000900098002805D100BF73
:108800008DA26E21FDF79FFD00BF00BF1C2107A8B0
:1088100004F08FFA6946087F02218843801C69466C
:108820000877002008900A900B900C900D9000BFE4
:10883000012108A881766846078700BF00200190C3
:1088400031786846017171784171807906218843D9
:10885000811C6846817180790821884301466846F9
:108860008171807910218843014668468171807941
:108870004108490068468171142102A804F059FAA0
:108880000EA8029001A8039068460482002141824C
:108890008482069502AA07A974480088149BA2DF67
:1088A0000FB0F0BD7FB5044600BF0121684681735B
:1088B0006F49818100BF6D4A03A90120A0DF0546F1
:1088C000002D02D0284604B070BD208800280DDDA0
:1088D00068480090228823463C3367486168FFF768
:1088E0006DFF0546002D01D02846ECE720890028C1
:1088F0000EDD62480090228923463C335E48401FCB
:10890000E168FFF75BFF0546002D01D02846DAE756
:10891000208A00280EDD5A480090228A23463C33E4
:108920005548001F6169FFF749FF0546002D01D03A
:108930002846C8E7208B00280EDD52480090228B85
:1089400023463C334C48801EE169FFF737FF05465C
:10895000002D01D02846B6E7208C00280EDD4A48BD
:108960000090228C23463C334348C01E616AFFF7C7
:1089700025FF0546002D01D02846A4E7208D0028BC
:108980000EDD42480090228D23463C333A48401E7B
:10899000E16AFFF713FF0546002D01D0284692E754
:1089A000206B002813D001A8216BFFF76BFE38481D
:1089B00023463C33082201A900902F48801FFFF76F
:1089C000FDFE0546002D01D028467CE700BF606B08
:1089D00000280FD02F480090606B027923463C336B
:1089E00001682548401CFFF7E9FE0546002D01D02F
:1089F000284668E7A06B002813D001A8A16BFFF7F9
:108A000091FE254823463C33072201A900901A48CD
:108A10002730FFF7D3FE0546002D01D0284652E748
:108A200000BF00204FE702460A70FF2000021040FE
:108A300000124870022070472E2E5C2E2E5C2E2EC7
:108A40005C2E2E5C2E2E5C536F757263655C626CBF
:108A5000655C626C655F73657276696365735C62A1
:108A60006C655F6469732E63000000006020002065
:108A70000A18000062200020292A00006A20002035
:108A8000722000207A200020822000208A200020EE
:108A9000922000209A200020A2200020F7B584B068
:108AA00004460F4606980678B01C1F2803DC607841
:108AB000801C1F2802DD0C2007B0F0BD1F20801B8A
:108AC000801E85B20295B11C781802A97DDF039043
:108AD0000398002801D00398EEE72078022808D1F7
:108AE00068460089A84204DC09200190684605898F
:108AF0000BE0082001906078002804D06078A8423C
:108B000001DC657801E068460589681CC2B2304620
:108B1000711CCEB23A543046721CD6B20199395407
:108B200006980178A81C0818C1B2069801700020A8
:108B3000C2E7F8B505460C462078001D1F2801DD68
:108B40000C20F8BD684679DF0646002E01D030467D
:108B5000F7E703212278501C2070A95419212278AC
:108B6000501C2070A954207841196846008800F0F4
:108B70008AFA2178401820700020E2E7F8B505460F
:108B80000F4616461C466868002801D10720F8BD2C
:108B90002078801C298840181F2801DD0C20F6E76A
:108BA0002878401CC1B22278501C2070B154217822
:108BB000481C207077542A8823789819696804F033
:108BC00059F820782978401820700020DFE730B568
:108BD00003461078C01C1F2801DD0C2030BD022484
:108BE0001578681C10704C550A241578681C107094
:108BF0004C551578681C10704B550020EEE7FFB5FA
:108C000087B006461D46109C0020069020780590EF
:108C1000002747E0B900706841180A886846028159
:108C200049884181002203A902A865DF04900498C5
:108C3000002802D004980BB0F0BD6846017B09986B
:108C400081422ED10698002801D0002000E00220A9
:108C5000019020786946097B4118019808181F285F
:108C600001DD0C20E7E70698002809D12078401C98
:108C700020702278511C08982170A8540120069079
:108C80002078421903A902A865DF049004980028FF
:108C900001D00498CFE720786946097B40182070FE
:108CA00000BF7F1C3088B842B4DC0698002806D08C
:108CB00021780598401C081AC1B205982954002053
:108CC000B9E7FFB581B0074615460A9E0096022215
:108CD0003846049B0299FFF792FF0446002C02D00D
:108CE000204605B0F0BD0096102229463846049B68
:108CF000FFF785FF0446002C01D02046F1E7002055
:108D0000EFE701460888062808DB08881922D20107
:108D1000904205DD0888E04A904201D00720704764
:108D20004888062808DB48881922D201904205DDD0
:108D30004888D94A904201D00720F0E70888D64AEF
:108D4000904208D04888904205D008884A889042CE
:108D500001DD0720E3E70020E1E7F8B506460D4610
:108D600014462078801D1F2801D90C20F8BD3046FC
:108D7000FFF7C7FF0746002F01D03846F6E7052169
:108D80002278501C2070A95412212278501C207087
:108D9000A95422785119308800F075F921784018CB
:108DA000207022785119708800F06DF921784018F0
:108DB00020700020DAE7F8B505460E4614462879FB
:108DC000801CC7B22078801CC0191F2801DD0C2030
:108DD000F8BD781CC1B22278501C2070B154FF211C
:108DE0002278501C2070B15422789119288800F004
:108DF0004AF9217840182070A88800280EDDA8685C
:108E0000002801D10720E3E7AA8823789819A968E8
:108E100003F030FF20782979401820700020D7E730
:108E2000FEB507460E461446386B002801D10720D0
:108E3000FEBD0020019032E0396B0C2201985043B6
:108E40000D182879801CC0B200900098401CC1B257
:108E50002278501C2070B15416212278501C2070AA
:108E6000B15422789119288800F00DF92178401822
:108E70002070A88800280EDDA868002801D10720EE
:108E8000D6E7AA8823789819A96803F0F3FE20781A
:108E90002979401820700198401CC0B201903420FC
:108EA000C15D01988142C7DC0020C1E7F8B50446E6
:108EB0000F4616460025002030702078002809D083
:108EC000324639462046FFF7E9FD0546002D01D020
:108ED0002846F8BDA078002808D031463846FFF76C
:108EE00028FE0546002D01D02846F2E7A08800287C
:108EF0000ADD33463A460121201DFFF73FFE0546B5
:108F0000002D01D02846E4E7E06800280BD00020BF
:108F1000E168085632463946FFF759FE0546002DEE
:108F200001D02846D5E7208A00280CDD3B460622E2
:108F30000221204610300096FFF7C3FE0546002DA3
:108F400001D02846C5E7208B00280CDD3B460722D0
:108F50000321204618300096FFF7B3FE0546002D8A
:108F600001D02846B5E7208C00280CDD3B461522B1
:108F70001421204620300096FFF7A3FE0546002D61
:108F800001D02846A5E7A06A002809D03246394614
:108F9000A06AFFF7E2FE0546002D01D0284698E7BB
:108FA000E06A002809D032463946E06AFFF703FF3D
:108FB0000546002D01D028468BE73420005D0028AF
:108FC00009DD324639462046FFF72AFF0546002DC7
:108FD00001D028467DE728467BE70146888800289F
:108FE00008D08868002805D08868007804221040DE
:108FF000002801D1072070470020FCE7014688883F
:10900000002801DD072070470020FCE7F3B593B08E
:109010000D460021129111911398002814D0139835
:10902000FFF7DBFF0446002C02D0204615B0F0BD50
:1090300012AA09A91398FFF739FF0446002C01D0A2
:109040002046F3E709AE00E00026002D13D02846A5
:10905000FFF7D4FF0446002C01D02046E6E711AA12
:1090600001A92846FFF722FF0446002C01D0204624
:10907000DCE701AF00E0002710A803793A46017A47
:10908000304672DFD2E702460A70FF20000210402D
:109090000012487002207047FFFF0000F8B5054637
:1090A0000E46002432782146641C6A5472782146A8
:1090B000641C6A5400BF022C01D1012000E0002092
:1090C0000746002F05D100BF08A22021FDF73BF97C
:1090D00000BF00BF2046F8BD70B504460D462846C7
:1090E00003F0A6FD2080656070BD00002E2E5C2E72
:1090F0002E5C2E2E5C2E2E5C2E2E5C536F757263B2
:10910000655C626C655C626C655F736572766963F1
:1091100065735C626C655F7372765F636F6D6D6FB4
:109120006E2E630001464888B74A1288904206DBDB
:109130004888B54A5288904201DC012070470020DF
:10914000FCE738B50546B1480088B14988423BD0B4
:10915000B0480078401CAF490870AF48007B0978E0
:1091600088420FDBA849A948008875DF0446002C17
:1091700007D0A9488069002803D0A7488169204604
:10918000884721E00020A3490870A348007C0028FC
:109190000FD03B219D48008876DF0446002C07D085
:1091A0009D488069002803D09B48816920468847F4
:1091B00000BF99484069002806D0002000909648DA
:1091C00041696846884700BF38BD70B505461C2216
:1091D00029469148FCF7BAFF00209049087028689A
:1091E00000280BD008228848296803F043FD8648F0
:1091F0007ADF0446002C08D0204670BD82487BDF11
:109200000446002C01D02046F7E70020C0437F49E8
:10921000088000207F490870814A0021814800F0C1
:1092200082FDEAE710B57F48006800F0F4FD10BD4C
:1092300038B57D48FFF776FF002829D177480078B8
:1092400000280AD074484069002820D000200090EF
:10925000714841696846884719E06E4800780028DF
:1092600002D16D48456801E06B48856800222946B7
:109270006C48006800F09EFD0446002C07D066484C
:109280008069002803D064488169204688470AE045
:1092900061484069002806D0012000905E4841697D
:1092A0006846884700BF00205C49087038BD10B58B
:1092B0000446A08855490880082221460E315A48A4
:1092C00003F0D8FC0020534908705348C089002897
:1092D00001D1FFF7ADFF10BD70B505460020C043BA
:1092E0004A49088000204B4908704E48006800F049
:1092F00092FD0446002C07D047488069002803D01F
:10930000454881692046884770BD70B50546AC1D4B
:1093100020884149C989884220D1208B02281DD14B
:1093200000BF00BFA17EE27E120211430846C107C2
:10933000C90F002902D0FFF77BFF0FE03948006812
:1093400000F069FD0646002E07D0334880690028EA
:1093500003D0314881693046884700BF70BD10B5E1
:1093600004460822A11D304803F084FCFFF760FF8B
:1093700010BD10B504462088102806D0112808D04A
:1093800012280ED0502810D107E02046FFF78FFF9B
:109390000CE02046FFF7A0FF08E02046FFF7B5FFEE
:1093A00004E02046FFF7DBFF00E000BF00BF10BD78
:1093B00038B5044608222146134803F05BFC1248E6
:1093C0007ADF0546002D1CD11748FFF7ABFE0028B9
:1093D0000BD10120114908700B490C48008875DF3A
:1093E000054601200B4908700BE00B484069002836
:1093F00006D001200090084841696846884700BFB0
:109400000025284638BD0000AC200020B6200020F2
:10941000FFFF0000B420002044280020C4200020CA
:1094200043910100C0200020B820002010B5002882
:1094300019DAFB4A03071B0F083B9B089B00D25815
:109440008307DC0EFF23A3409A438B071B0E840780
:10945000E40EA3401A43F24B0407240F083CA4086F
:10946000A4001A5118E0EF4A03231B02D218830804
:109470009B00D2588307DC0EFF23A3409A438B073F
:109480001B0E8407E40EA3401A43E64B0324240278
:109490001B198408A4001A5110BD10B50446E248F7
:1094A000846003211120FFF7C1FF10BD10B501201A
:1094B0000004DE494860DD4940394860112000F071
:1094C000F5FC112000F0E4FC0120D94908602F20B0
:1094D000FCF72CFE0120D749087010BD10B51120F3
:1094E00001218140CF4A8032116000BF0120000479
:1094F000CE498860CD49403988600120CC49486018
:109500002F20FCF713FE0120C94988600020CA49BA
:1095100008602F20FCF70AFE0020C649087010BD25
:10952000F0B5024624205043C44B1B68C118C44800
:109530000068401C002802D1C148026059E0C048C0
:109540004B68006824246043BC4C246800194068C0
:10955000834217D8BA48006824235843B74B1B6886
:10956000C01840684B68C31AB5480068242460439B
:10957000B24C246800194360B14800680862B048E2
:10958000026036E04B68AE4D2C6828680DE024255B
:109590004543AA4E3668AD196D685B1B0446242509
:1095A0004543A64E3668AD19286A451C002D07D0E4
:1095B00024254543A14E3668AD196D689D42E6D31A
:1095C000451C002D0CD0242545439C4E3668AD1912
:1095D0006D68EE1A24254543984F3F68ED196E607B
:1095E0004B60086224256543944E3668AD192A62A3
:1095F00000BFF0BDF8B50646914805682C4609E065
:10960000B44200D109E02546242060438B49096813
:109610004018046A601C0028F2D100BF601C0028BA
:1096200000D1F8BDA54210D18548006824214843E7
:10963000824909684018006A814908600846006844
:10964000401C002801D1FFF749FF242060437B49DB
:109650000968401847682420604378490968401821
:10966000016A24206843754A126880180162242028
:109670006843724909684018046A601C00280CD0CD
:10968000242060436D49096840184068C1192420AE
:1096900060436A4A12688018416000BFC1E710B594
:1096A000112000F0FCFB10BD10B5142000F0F7FBFA
:1096B00010BD70B5044663480068002813D0614AA5
:1096C000E169A06912689047054600BF2E46002E4A
:1096D00007D000BF5CA2FF2164313046FCF733FEA7
:1096E00000BF00BF02E0A169E069884770BDF8B51E
:1096F00053480068401C00283AD0002700F008FCBE
:1097000004464D480168204600F005FC06464C48DA
:10971000056811E0242068434849096844186068D6
:10972000B04200D90BE06068361A6068C719256A34
:109730002046FFF7BEFF00BF681C0028EAD100BF2B
:109740004D4800784D490978884209D14B48007846
:10975000401CC0B249490870022801D1002008709D
:1097600046480078800046490F50FFF79DFF00BF34
:10977000F8BD014640480078404A127890421DD01A
:109780003D480078401C3C4A107010460078022882
:1097900001D100201070384800788000384A1058F5
:1097A0000860254A086812688018234A106010462D
:1097B00000680002000A1060012070470020086065
:1097C00000BFFAE7FEB51E48006801902D480078FA
:1097D000009076E00098C0002B490968441825786D
:1097E0006BE01820684361680F18681CC5B2A07848
:1097F000A84200D100253878022802D0032859D188
:1098000044E02421786848430C4909684618307DB3
:10981000002804D07868FFF7EDFE002030754AE09C
:109820001CED00E000E100E00015014040130140A4
:1098300000100140F0200020DC200020CC2000207F
:10984000D8200020EC2000202E2E5C2E2E5C2E2E08
:109850005C2E2E5C2E2E5C536F757263655C61709E
:10986000705F636F6D6D6F6E5C6170705F74696D5A
:1098700065722E6300000000E8200020E92000202F
:10988000E0200020D0200020D42000200CE0F84967
:10989000096824225143F74A12688818002101758B
:1098A000F34A016A116000BFF1480068401C0028BB
:1098B000EDD100E000BF00BF00BF6078A84290D1AA
:1098C00000BF0098411EC9B20091002882D1E8482B
:1098D00001680198814201D00120FEBD0020FCE713
:1098E000F0B50346002426E0E14E366824277E4387
:1098F000E04F3F68F01946689E4203D94668F61A61
:1099000046601DE046689B1B466834190026466089
:109910000675D74E3568D64F066A3E600669002E3A
:1099200008D00E193602360A86600669C6601668C7
:109930000662156000BFCE480068401C0028D3D1E5
:1099400000BFF0BDFEB50746C94800680290CA488E
:10995000007801906BE00198C000C849096845187B
:109960005DE0781C002807D03E4624207043C149A2
:1099700009684418276A23E02978182359436A683C
:1099800050182978491C29702978AA78914201D168
:1099900000212970466824217143B64A12688C1848
:1099A0000178012902D1217D002900D037E08168AA
:1099B000A160C168E160016921614169E16100BFA5
:1099C000AF49A0680968401A0002000AAD49884200
:1099D00008D2AB49A068096800F09DFAE168401818
:1099E000606011E0A648A168006800F094FA009059
:1099F000E1680098814204D9E1680098081A606023
:109A000001E00020606000BF0020A060E060012055
:109A10002075801E20623046FFF782FD00BF781C53
:109A200000289ED12878697888429AD100BF019891
:109A3000411EC9B2019100288DD18D48016802985C
:109A4000814201D00120FEBD0020FCE7FEB5884820
:109A50000068401C002834D0854800682421484311
:109A6000844909684018456800F052FA019084481A
:109A700004682146019800F04EFAC61C824800781E
:109A8000002801D1FFF712FDAE4201D2284600E0C6
:109A9000304604192402240A20467C49086000BF8D
:109AA00000F036FA00900199009800F034FAC71CD3
:109AB0002046019900F02FFA874201D9FFF7EFFD08
:109AC00001E0FFF70BFDFEBDFEB50020C043019095
:109AD0006B480468664807686846FFF74AFE054613
:109AE000FFF770FE0646002D05D001AA214600981A
:109AF000FFF7F6FE01260198FFF724FF002800D0AB
:109B00000126002E02D03846FFF7A0FFFEBD4170AF
:109B1000704770B502460B465078411C90788842D9
:109B200000D100211078884201D1002070BD196059
:109B300050781826704355682C182046F6E7FFB574
:109B400081B005460E461746E9004C4A126888184F
:109B50006946FFF7DEFF0446002C02D1042005B061
:109B6000F0BD01202070666000F0D2F9A060E760CF
:109B7000049820610A986061E900404A12688818D8
:109B80000099FFF7C4FFFFF78FFD0020E7E7F8B566
:109B900004460E46E100394A126888186946FFF704
:109BA000B8FF0546002D01D10420F8BD0220287021
:109BB0006E60E100314A126888180099FFF7A7FF2C
:109BC000FFF772FD0020F0E738B50446E1002B4AAC
:109BD000126888186946FFF79CFF0546002D01D1E1
:109BE000042038BD03202870001F6860E100234A6C
:109BF000126888180099FFF78AFFFFF755FD0020CB
:109C0000EFE710B50020224908600021204841609C
:109C10008160C16000201E49403908604860FFF73C
:109C200066FD10BD10B5FFF74FFF10BDFFB581B049
:109C30000E4617461C4620468107890F002901D190
:109C4000012100E00021002902D1072005B0F0BD6C
:109C5000002C01D10720F9E7FFF740FC0D490A98D5
:109C600008600D48067003480460002523E00000EA
:109C7000D8200020CC200020D0200020D42000209C
:109C8000DC200020FFFF7F00F02000204015014075
:109C900040110140EC200020C82000200021242099
:109CA00068439F4A12681154242068439C4A1268F2
:109CB000801801756D1CB542F0DB24207043041937
:109CC00003209849087098480460183400250CE077
:109CD000E900954A12688818002101704170877068
:109CE0004460182179430C196D1C032DF0DB002012
:109CF000C0438E49086000208D4908708D49087066
:109D0000142000F0D3F803211420FFF78FFB142058
:109D100000F0BEF80198FFF7C0FB00F0F9F88649A3
:109D20000860002092E770B503460C467C48006846
:109D3000002801D1082070BD002A01D10720FAE7D0
:109D4000002B01D10720F6E700211CE02420484326
:109D5000734D2D68285C002814D101252420484328
:109D60006F4E36683554242048436D4D2D68401998
:109D70004470242048436A4D2D684019826119605F
:109D80000020D8E7491C6D4800788142DEDB0420C2
:109D9000D1E710B500F092F8012802D0032804D1D1
:109DA00001E0002403E0012401E0022400BF00BF21
:109DB000204610BDFEB504460D46164658480068BC
:109DC000002801D10820FEBD5C480078844201D201
:109DD000052D01D20720F6E7242060435049096889
:109DE000085C012801D00820EDE7242060434C499D
:109DF000096840184078012801D1284600E0002079
:109E00000746FFF7C6FF3B462A46214600960190CB
:109E1000FFF795FED7E770B5044641480068002873
:109E200001D1082070BD45480078844201D3072045
:109E3000F8E7242060433A490968085C012801D00A
:109E40000820EFE7FFF7A5FF05462146FFF79FFE35
:109E5000E8E710B532480068002801D1082010BD9D
:109E6000FFF797FF0446FFF7AFFEF8E710B504468B
:109E700000F04EF82060002010BD70B505460E467B
:109E800014463146284600F046F82060002070BD98
:109E9000C206D20E01219140294A11607047C206C4
:109EA000D20E01219140274A11607047C206D20E9E
:109EB00001219140234A80321160704710B5224839
:109EC0004068C105C90D002920D00A46103A50B299
:109ED00000280DDA1C4B1C330407240F083CA4088F
:109EE000A4001B598407E40EE3401B069B0F0BE004
:109EF000134B032424021B198408A4001B59840754
:109F0000E40EE3401B069B0FD8B210BD0420FCE713
:109F10000E48406870470246501A0002000A704717
:109F2000CC200020D0200020D4200020D8200020E9
:109F3000E8200020E9200020DC200020C8200020AC
:109F400000E100E000E200E000ED00E0001501406B
:109F500070B506460C46154629462046FCF70BFA16
:109F600070BDF8B55A480078002800D1F8BD5948AE
:109F70000068002801D1012000E000200546564875
:109F80000068002801D1012000E00020064600BF43
:109F9000002D14D1684651DF0446052C01D101255E
:109FA0000CE0002C06D000BF4CA269212046FCF733
:109FB000CAF903E0474900980968884700BF002EA6
:109FC0001AD154480088009069465348006861DF00
:109FD0000446052C01D101260DE0002C06D000BF5F
:109FE0003EA280212046FCF7AEF904E04A48006812
:109FF00039490968884700BF002D02D0002E00D0E3
:10A0000000E0C5E700BF00BFB0E7FFB581B00C4678
:10A0100016461F46002C02D1072005B0F0BD204691
:10A020008107890F002901D1012100E000210029C9
:10A0300001D10720F1E738480460364806803748E8
:10A0400007603749019810DF0546002D01D02846EA
:10A05000E3E701201E490870162026DFDDE710B572
:10A0600011DF0446002C01D0012000E00020184937
:10A070000870204610BD0146002901D10E2070470E
:10A08000154801600020FAE70146002901D10E20A1
:10A090007047104801600020FAE770B51F4800685B
:10A0A000002811D01D4800688047044600BF25469F
:10A0B000002D07D000BF09A2FF2133312846FCF74D
:10A0C00042F900BF00BF01E0FFF74BFF70BD000089
:10A0D000FE20002004210020002100202E2E5C2ED6
:10A0E0002E5C2E2E5C2E2E5C2E2E5C536F757263B2
:10A0F000655C73645F636F6D6D6F6E5C736F6674C8
:10A100006465766963655F68616E646C65722E6311
:10A1100000000000FC200020F8200020F420002097
:10A12000519F010070B503460C460820002115E040
:10A130000C254D43FE4EAD19AD7A2540002D0CD0B7
:10A14000FC4DAB4205D00C254D43AD192D899D42E8
:10A1500002D11160002003E00520491C0029E7D04E
:10A1600000BF70BD10B504461C216143F24A891836
:10A1700008461130062102F0DAFD1C216143EE4A47
:10A180008818102102F0D3FDFF211C206043EA4A09
:10A19000801801741C206043801881760021C94317
:10A1A0001C20604380180183204601F03DF910BD5A
:10A1B0007CB50546A9B26A46E04801F02BFE04468C
:10A1C000002C09D14C21684601F0A3FF0446002C65
:10A1D00002D12846FFF7C6FF20467CBDF8B50546EC
:10A1E0000E4617460520009000241BE0002D06D1E6
:10A1F0001C206043D0494018008BB8420DD0002D80
:10A200000FD01C216143CC4A891808461030072220
:10A21000294602F0DFFC002803D1346000200090C2
:10A2200002E0641C0A2CE1D300BF0098F8BD10B511
:10A23000044601210C206043BD4A80188172891EAA
:10A240000C20604380180181FF210C20604380189E
:10A25000C1720C2161438818072102F068FD10BD0E
:10A2600010B50446002010BDF0B585B007460C4679
:10A270001020009061780C225143AD4A891808895A
:10A280006A4601A9AADF0646002E46D1617814224B
:10A290005143AB4A8918081D69460A8801A902F092
:10A2A00099FC002812D160780C214843A04940183D
:10A2B000807A0221084002282FD06178142251436D
:10A2C0009F4A8818142102F034FD26E0607814219A
:10A2D00048439B490858002801D09A4D00E09A4D08
:10A2E00069460988607814225043954A1150617874
:10A2F00014225143924A8918081D69460A8801A907
:10A30000FBF724FF6078142250438D4A81183423D0
:10A3100014223846A847064600BF002005B0F0BD0D
:10A3200002460020704770B505460C46617814223D
:10A330005143834A881834231422294601F078FEB9
:10A340000646002E0DD16078142148437C490858F8
:10A35000401C002805D10021607814225043784A1F
:10A360001150304670BD024600207047F8B50446D3
:10A3700000260027607814214843714908580028B6
:10A380001FD060780C21484369494018807A4021E9
:10A390000840402815D160780C2148436449401892
:10A3A000807A2021084020280BD06078142148436F
:10A3B00063494018061D6078142148436049085AD3
:10A3C00087B261780C225143594A891808893A4664
:10A3D0003146A9DF0546002D00D05C4D2846F8BD6A
:10A3E0000146002070470146002902D15748333802
:10A3F0007047FF20087048708870C8700020F7E729
:10A40000FFB58BB00F461D4600BF514800680028BD
:10A4100001D10FB0F0BD00BF14984C2800D9F8E767
:10A420000120029007A8FFF7DEFF064600BF019655
:10A43000019E002E06D000BF464A47490198FBF70F
:10A4400082FF00BF00BF00216846017708A80170A5
:10A450000695149805900020019017E0019881B2AC
:10A4600003AA364801F0D6FC0646002E0BD108227E
:10A4700003A90B9802F0AEFB002804D10198C1B2E9
:10A480006846817705E00198401C019001980A28F0
:10A49000E4D300BF6846807FFF2848D0042F0AD14C
:10A4A00014984C2803D1202008A9087081E040208E
:10A4B00008A908707DE02049681A1C2102F03BFCC5
:10A4C00004460A2C1DD205A809900D98002810D129
:10A4D0006946887F01218140204A12681140002985
:10A4E00001D0012100E00021002902D100200290CA
:10A4F0005FE06946887F00F097FF202008A9087078
:10A5000057E01749681A182102F015FC0446002C80
:10A5100028D105A80990202108A801706846447731
:10A52000807F1C21484304494018069041E062E0C6
:10A53000A4290020FFFF000060280020082100203F
:10A540009029002067BF01009DBE010041800000EE
:10A55000B029002098CF0100C30400001021002082
:10A5600078290020F749681A142102F0E4FB044618
:10A57000002C19D1302108A80170684644770121C8
:10A58000C1770C206043F0494018807A02210840CE
:10A5900002280ED06946497F14225143E94A88189F
:10A5A000142102F0C6FB04E000200290402008A91C
:10A5B0000870029801281ED1042F06D108A9087836
:10A5C0000321084308A908700EE0032F06D108A94B
:10A5D00008780121084308A9087005E008A908784F
:10A5E0000221084308A9087005A8099008A907A82E
:10A5F0000D9A00F05CFF00BF0BE77FB50646002E0A
:10A6000002D1D24804B070BD00240BE000BF00218D
:10A610000C206043CE4A11500C2060438018817298
:10A6200000BF641C002CF1D0002403E02046FFF79B
:10A63000FEFD641C002CF9D01421C24802F079FB05
:10A64000002406E02046FFF78DFDFF20C149085594
:10A65000641C0A2CF6D34C21684681810A21C181F1
:10A66000BD480290BD4902A801F00EFB0546002D31
:10A6700030D10120BA4908703078002821D1002457
:10A680001CE0A1B26A46B54801F0C4FB0546002DA6
:10A690000FD11C216143B34A881800231C2269464C
:10A6A00001F0C6FC0546002D07D00020AC4908701B
:10A6B00006E00020AA49087002E0641C0A2CE0D3DE
:10A6C00008E06A469089D289504381B2A34801F0DC
:10A6D00020FD0546284695E770B505460C4600BFA7
:10A6E0009F480078002802D19848801F70BD00BFA5
:10A6F000002D01D19548F9E7002C01D19348F5E7E9
:10A700002068002801D19148F0E7914800680028AE
:10A710000FD18F49206808600622A11D8C48001DBA
:10A7200002F0A8FA20798A49887200202870002651
:10A7300001E0864E0A3E3046D8E770B5044600BFB9
:10A7400087480078002802D18048801F70BD00BF74
:10A75000002C01D17D48F9E700BF2078012806DAF6
:10A7600020780C2148437A490858002802D17748BC
:10A77000801FEBE700BF00BF6078012807DA607830
:10A780000C21484370494018807A012802D16F4853
:10A79000801CDBE700BF6D4DAD1F60780C21484386
:10A7A00069494018807A02210840022809D161785D
:10A7B0000C225143644A891808896549091D7EDFC6
:10A7C00005462846C2E7024600BF654800780028D3
:10A7D00002D15E48801F704700BF002A01D15B484C
:10A7E000F9E7002901D15948F5E700BF10780128A1
:10A7F00006DA10780C235843554B1858002802D11C
:10A800005248801FE7E700BF00BF5078012807DAF1
:10A8100050780C2358434C4BC018807A012802D141
:10A820004A48801CD7E700BF50780C235843464B5A
:10A83000C018807A04231840002802D00120087034
:10A840000EE050780C2358433F4BC018807A4023C9
:10A850001840002802D00220087001E00020087093
:10A860000020B8E7F0B5044600BF3D480078002856
:10A8700002D13648801FF0BD00BF002C01D1334803
:10A88000F9E7002901D13148F5E70868002801D12E
:10A890002E48F0E78868002801D12C48EBE700BF7C
:10A8A0002078012806DA20780C256843284D28589E
:10A8B000002802D12548801FDDE700BF00230022C9
:10A8C000002024E01C254543264EAD19AD7EED0742
:10A8D000ED0F002D08D11C254543AD1997008E685A
:10A8E000F5511C4EB054521C1C2545431D4EAD194C
:10A8F000AD7E02263540002D08D11C254543194E5A
:10A90000AD1910359F000E68F5515B1C401C0A28DC
:10A9100005D20D799D4202D90D7B9542D2D80B719B
:10A920000A730020A7E7024608488230704770B5D6
:10A93000044600BF0A480078002815D10348801F4C
:10A9400070BD000090290020A42900200E80000086
:10A95000B0290020BC29002001A40100082100200A
:10A96000142100206028002000BF002C01D1F748EE
:10A97000E6E700BF2078012806DA20780C2148435A
:10A98000F3490858002802D1F048801FD8E700BFDB
:10A9900000BFA0780A2807DAA0781C214843ED49B7
:10A9A0004018807EFF2802D1E848801CC8E700BF1D
:10A9B000A078FFF7FDFB05462846C1E770B50446C1
:10A9C00000BFE5480078002802D1E048801F70BD34
:10A9D00000BF002C01D1DD48F9E700BF2078012835
:10A9E00006DA20780C214843D9490858002802D1BA
:10A9F000D648801FEBE700BF002600250BE01C2097
:10AA00006843D4494018807EFF2803D02846FFF7CA
:10AA1000CFFB06466D1C0A2DF1D33046D7E7FEB5B5
:10AA200004460D4600BFCC480078002802D1C74834
:10AA3000801FFEBD00BF002C01D1C448F9E7002DE6
:10AA400001D1C248F5E700BF2078012806DA207856
:10AA50000C214843BE490858002802D1BB48801F3A
:10AA6000E7E700BF00BF6078012807DA60780C21B3
:10AA70004843BA494018807A012802D1B348801C63
:10AA8000D7E700BF00BFA0780A2807DAA0781C210A
:10AA90004843B0494018807EFF2802D1AB48801C53
:10AAA000C7E700BFA868002812D0686800280FD048
:10AAB000686810280CD22878012809D163781427F7
:10AAC0007B43A74FDB19181D6A68A96802F0D2F80A
:10AAD000A1786A46A34801F09DF9064628788000CF
:10AAE000A1490A5821466846904706463046A0E7E5
:10AAF0007CB504460D4600BF97480078002802D177
:10AB00009248801F7CBD00BF002C01D18F48F9E71F
:10AB1000002D01D18D48F5E700BF2078012806DA25
:10AB200020780C2148438A490858002802D18748D8
:10AB3000801FE7E700BF00BFA0780A2807DAA078E7
:10AB40001C21484383494018807EFF2802D17F485A
:10AB5000801CD7E700BF60780C2148437F4940182C
:10AB6000807A02210840022802D078488330C9E761
:10AB7000A868002812D1686810280FD22878012808
:10AB80000CD160781421484375494018001DA86015
:10AB9000607814214843724908586860A1786A4671
:10ABA000704801F037F90646287880006F490A5846
:10ABB00021466846904706463046A3E7014600BF57
:10ABC00065480078002802D16048801F704700BFA8
:10ABD000002901D15D48F9E700BF0878012806DAAD
:10ABE00008780C2250435A4A1058002802D157487E
:10ABF000801FEBE700BF00BF88780A2807DA887853
:10AC00001C225043534A8018807EFF2802D14F48AF
:10AC1000801CDBE700BF4D488230D7E702464B4837
:10AC200083307047024649488330704701464748A1
:10AC300083307047024600BF47480078002802D1A1
:10AC40004248801F704700BF002901D13F48F9E703
:10AC5000002A01D13D48F5E700BF1078012806DA47
:10AC600010780C2358433A4B1858002802D1374823
:10AC7000801FE7E700BF107808700020E2E7FEB50C
:10AC800004460E46A1786A46364801F0C3F80546E8
:10AC9000002D49D160780C21484330494018807A12
:10ACA00020210840202801D0022E01D1304F04E09D
:10ACB000012E01D12F4F00E02F4FA0781C225043CE
:10ACC000244A811800231C226846B8470546002DF7
:10ACD0001AD1022E18D060780C2148431F49401821
:10ACE000807A2021884361780C2251431B4A8918BD
:10ACF0008872607818225043204A81181C23182239
:10AD00006846B847054600BF022E0DD020780C21BA
:10AD100048430F494018807A800013490A58214659
:10AD200068469047054600BFFEBD70B504460D4617
:10AD300000BF09480078002802D10448801F70BD78
:10AD400000BF002C1CD10148F9E700000E80000074
:10AD5000B02900206028002014210020A429002010
:10AD6000902900200821002064CF010074CF010049
:10AD700067BF01009DBE010061A20100782900208B
:10AD8000002D01D1FE48DAE700BF2078012806DA5D
:10AD900020780C214843FB490858002802D1F84884
:10ADA000801FCCE700BF00BFA0780A2807DAA07890
:10ADB0001C214843F4494018807EFF2802D1F04806
:10ADC000801CBCE700BF6078FF281CD128780228CF
:10ADD00019D0A1781C225143EB4A8918084610303B
:10ADE0000722294601F046FFA07801218140E74A69
:10ADF00012681143E54A116000BF02212046FFF7A7
:10AE00003EFF002601E0DE4EF61F304697E770B5A4
:10AE100004460E4600BFDE480078002802D1D8481C
:10AE2000801F70BD00BF002C01D1D548F9E7002E6E
:10AE300001D1D348F5E700BF2078012806DA207851
:10AE40000C214843CF490858002802D1CC48801F24
:10AE5000E7E700BFCA4D093DA078FF2817D1607809
:10AE6000FF282AD060780C214843CA494018807ACC
:10AE700002210840022820D160780C225043C54AA4
:10AE800081180722304601F0F5FE002515E0A07874
:10AE90001C214843BC494018807E022108400028FC
:10AEA0000BD1A0781C225043B74A801801461031BC
:10AEB0000722304601F0DEFE00252846B1E77CB5CA
:10AEC0000446A1786A46B44800F0A4FF0546002D68
:10AED00013D1617818225143B04A88181C231822D4
:10AEE000694601F0A5F8A748807A8000AC490A5865
:10AEF000214668469047054600BF7CBDF0B589B045
:10AF000004460026FF20029000BFA14800780028D8
:10AF100001D109B0F0BD00BF00BF9A480068002809
:10AF200000D1F6E700BF06A8FFF75DFA054600BFAF
:10AF30002F46002F06D000BF9A4A9B493846FBF7A0
:10AF400002FA00BF00BF0020019007900025201DDD
:10AF50000490342168468182FF21817600210176A8
:10AF6000002008902088102813D0A08808AA022169
:10AF7000FFF7D8F80546002D0BD10C21089848435F
:10AF800084494018C17A684681760898C1B26846FB
:10AF900041762088142879D006DC10280BD011289F
:10AFA00079D0132874D110E1172872D0182871D0E5
:10AFB0005228F7D111E208AF3A4601217B48FFF74A
:10AFC000B1F800900098002807D102210C223868BF
:10AFD0005043704A8018817201E00420009000986C
:10AFE0000546002D51D101261121684601730898AC
:10AFF000C1B268464176A1880C2208985043654A40
:10B000008018018102210C2208985043614A80185F
:10B0100081720C22089951435E4A88180722A11DAB
:10B0200001F028FE607B304000280AD0607B400899
:10B030005F49085CFF280AD0607B4008085C0290EA
:10B0400005E05A4A02A9A01DFFF7C8F80546002DE1
:10B050001BD10298C1B20C22089850434D4A801867
:10B06000C1720C210898484311464018807A082183
:10B0700008430C2208995143464A89188872694648
:10B080000298887606A8FFF71AFFB1E141E002E0D6
:10B09000ADE1DBE07FE10C21089848433D494018D1
:10B0A000807A022188430C2208995143394A891831
:10B0B00088720C210898484311464018807A08216C
:10B0C000084008280ED10C21089848431146401822
:10B0D000807A4021084040280FD1002106A8FFF7C0
:10B0E000CEFD0AE06846807EFF2806D06946887E4D
:10B0F000FFF738F8FF206946887610210C2208985F
:10B100005043244A80188172012612206946087330
:10B110006EE10C21089848431E494018C07AFF2868
:10B1200023D1E28902A90020FFF758F80546002D37
:10B130001BD10298C1B20C2208985043154A8018BE
:10B14000C1720C210898484311464018807A0821A2
:10B1500008430C22089951430E4A8918887269469F
:10B160000298887606A8FFF7AAFE0C2108984843A3
:10B1700008494018C07AFF2821D01821089819E002
:10B180000E800000B029002060280020102100203F
:10B1900014210020A4290020082100207829002063
:10B1A00074CF010098CF010037090000FFFF0000B5
:10B1B000BC2900204843DE494018001D0190A088AA
:10B1C0000022019981DF054612E1132069460873C8
:10B1D000A088D84A00217FDF0546002D02D00795C0
:10B1E000002632E00C2108984843D3494018807A61
:10B1F000042108430C2208995143CF4A89188872C8
:10B2000001260C210898484311464018C07AFF28AF
:10B210001BD000BF162069460873142108984843C4
:10B22000C6494018002141608160C16001610C2164
:10B230000898484311464018807A202108430C2280
:10B2400008995143BC4A89188872D1E00C210898AA
:10B250004843B9494018807A042188430C22089950
:10B260005143B54A8918887214206946087301262B
:10B27000A079002802D0A07907908BE018210898C7
:10B280004843AB494118E07A887018210898484330
:10B29000A7494118A07A4870182208995143A44A36
:10B2A0008918081D142221460C3101F0E3FC0C2101
:10B2B00008984843A0494018807A40210840402817
:10B2C00068D10C21089848439B494018807A08218E
:10B2D00008430C2208995143974A891888720C2117
:10B2E0000898484311464018C07AFF2840D10C22E4
:10B2F000089850430A46811802A800F09DF80546B8
:10B30000002D33D16946029888760298C1B20C228A
:10B3100008985043884A8018C172A1891C2202985B
:10B320005043874A80180183E07A4007C00F002805
:10B3300017D01C2208995143814A881810222146AF
:10B34000203101F097FC1C21089848437C494018A3
:10B35000807E410849001C2208985043784A801892
:10B360008176012106A8FFF78AFC13E0079511E01A
:10B370000C210898484370494018807A20210843DE
:10B380000C22089951436C4A89188872002106A83A
:10B39000FFF775FC2CE00C210898484366494018DB
:10B3A000807A402108430C2208995143624A891847
:10B3B00088721520694608730020079001265D48B1
:10B3C000001F807A80005F4A115806A8884705460A
:10B3D000002D01D05C4807900AE05648001F807A93
:10B3E0008000584A115806A88847079000E000BF1F
:10B3F00000BF002E16D003A906A8079A00F057F840
:10B400006846007B12280DD100BF0C2108984843E4
:10B4100049494018807A012802D00898FEF707FFB2
:10B4200000BF00BF00BF74E501218140474A126898
:10B430008A4346490A607047F8B505460E46424FB2
:10B44000BF1C00242EE01C2060433D494018807E34
:10B45000FF2826D13078022814D01C2060434018E1
:10B46000807E022188431C216143354A89188876F1
:10B470001C2161438918084610300722314601F02B
:10B48000F9FB0BE01C2060432D494018807E4108E9
:10B4900049001C2060432A4A801881762C700027BE
:10B4A00002E0641C0A2CCED300BF3846F8BDF8B5C4
:10B4B00004460D4616461F48001F076832462946B7
:10B4C0002046B847F8BD02460020704770B50546D3
:10B4D0000E4631462846FEF7C7FE0446002C02D130
:10B4E00000BF00BF0446204670BD024600207047E2
:10B4F00070B505460E4631462846FEF714FF044651
:10B50000002C02D100BF00BF0446204670BD01469A
:10B510000020704770B505462846FEF727FF044611
:10B52000002C02D100BF00BF0446204670BD0000C1
:10B5300078290020B4290020A42900209029002087
:10B540006028002084CF01004180000010210020ED
:10B55000002314214143FC4A5354142141438918C8
:10B560004B8002231421414389188B60002314214E
:10B5700041438918CB601421414389180B61142180
:10B58000414389188B80704710B50020EF4908802F
:10B59000EF490870EC49091F087048708870002452
:10B5A00003E02046FFF7D4FF641C0A2CF9D310BD3A
:10B5B000FFB583B004460F4615460326E4480078DD
:10B5C00000280BD1002D06D10698002803D10220B7
:10B5D000DF49087002E00120DD490870DC4800788E
:10B5E000030001F0A5FC07FD05314E84BAD7FD002C
:10B5F000D8484069401C002808D00122120712696F
:10B6000091B2D44A506901F096FB02E00120000794
:10B610004069401E01210907096989B24843029027
:10B620000120000700690004820C01200007006966
:10B6300080B278430146029821DF0646002E02D1EF
:10B640000220C3490870D0E0384620DF0646002EAD
:10B6500016D1002D11D1069800280AD1207804288F
:10B6600003D10720BA4908700AE00520B8490870DC
:10B6700006E00420B649087002E00320B4490870CF
:10B68000B3E0B4484069401C002808D001221207EA
:10B69000126991B2AF4A506901F04DFB02E00120FE
:10B6A00000074069401E01210907096989B2484322
:10B6B000012109070290096989B2794308462A469F
:10B6C000029921DF0646002E10D1069800280AD1E3
:10B6D0002078042803D106209D49087006E0052043
:10B6E0009B49087002E00420994908707DE0994860
:10B6F0004069401C002808D001221207126991B24B
:10B70000944A506901F017FB02E0012000074069EC
:10B71000401E01210907096989B24843A900401860
:10B7200061884018012109070290096989B27943AB
:10B73000AA00891862888818069A029921DF0646AD
:10B74000002E09D12078042803D1062080490870F2
:10B7500002E005207E49087047E0012000070069EB
:10B7600080B27843AB00C0180290608882082169DB
:10B77000029821DF0646002E0BD1002D06D1069837
:10B78000002803D107207249087002E006207049A2
:10B7900008702AE06F484069401C002808D0012248
:10B7A0001207126991B26B4A506901F0C4FA02E0C3
:10B7B000012000074069401E01210907096989B27B
:10B7C0004843019001200007006981B2019801F00F
:10B7D000B2FA029020DF0646002E04D1072000E0D6
:10B7E00002E05B49087000E000BF00BF304607B0D0
:10B7F000F0BDF0B585B00F275348001F0078142125
:10B80000484351494418E5682078022804D00428A8
:10B8100023D005286FD16FE0206903904B48008842
:10B8200086026088801B0490039880190390A0888A
:10B8300080194519012189020498884206D204988A
:10B8400082082846039921DF074605E0FF220132DE
:10B850002846039921DF074681E0A06800013E49A0
:10B86000401800890490A0680001401840890390A6
:10B87000A06800014018406802900298A84205D1D3
:10B880000399049848436188884202D0A06803283D
:10B890000DD101200007006981B2284601F04BFA62
:10B8A0002A4909884618304620DF074622E0012051
:10B8B0000007006981B2284601F03DFA06460120E2
:10B8C0000007006980B27043281A800801900120A7
:10B8D0000007006980B2711C484361884919401A09
:10B8E0008008009031462046009B019AFFF760FED9
:10B8F000074600BF33E031E001200007006981B254
:10B90000284601F018FA0646A088411901200007D0
:10B91000006980B27043081A80080490A08840191A
:10B920006188421801200007006980B2711C4843F9
:10B93000801A8008039031462046039B049AFFF743
:10B9400037FE07460BE00000CC2900202021002014
:10B950002321002000100010942A002000BF00BF07
:10B96000002F02D10120F9498870384605B0F0BD9A
:10B97000FFB581B0064617460024F44840780A28EF
:10B9800037D0F2480078F14949784018C4B20A2CFF
:10B9900002DB20460A38C4B214206043EB49091D7B
:10B9A0000E5414206043401807611420604341186E
:10B9B000029805C8CA60886014206043E34A121DDB
:10B9C0008018049941801420604380180A9981806E
:10B9D0000025101F8078002805D1FFF70AFF0546D3
:10B9E000112D00D10025D9484078401CD749487016
:10B9F00000E00425284605B0F0BD10B50024D3486A
:10BA00004078002807DDFFF7F4FE0446002C02D042
:10BA1000112C00D10024204610BDF8B50446CB48B7
:10BA2000007814214843C949091D0E5C081F00789D
:10BA300014214843C549091D401880680001C449C4
:10BA40000D58C248007814214843C049091D4018C8
:10BA50004088091F0090097814225143BB4A121DE7
:10BA600089180B69111F097814225143B74A121D16
:10BA700089180846083022463146A847F8BDFEB569
:10BA800005460026B148807801287DD10020AF49C5
:10BA90008870B0480078082811D1022D03D1002009
:10BAA000AC49087002E00020AB490870FFF7A5FF21
:10BAB0000646002E02D03046FFF7AFFFFEBD022D36
:10BAC00002D0032D79D174E0A048007814214843B6
:10BAD0009E49091D4418A1480088401C9F490880C0
